:1000000013C02DC055C32BC07CC529C028C027C034
:1000100026C0C0C380C423C022C021C03FC349C57D
:10002000B5C41DC08FC41BC011241FBECFEFD2E0CA
:10003000DEBFCDBF11E0A0E0B1E0E6EDFFE002C021
:1000400005900D92A430B107D9F722E0A4E0B1E009
:1000500001C01D92AB3DB207E1F76FD5BAC7D0CF53
:100060008F3021E0920720F420910201211105C078
:100070005C9881E08093230108959C01215031090F
:100080002F39310520F020910201211102C05C9826
:10009000089520912301211112C09C012B5A31098E
:1000A0002336310560F420910101211108C020910F
:1000B0000201213021F45C9A1092000108958B5ABC
:1000C00091098935910558F480910101811107C08A
:1000D00080910201813019F45C9A109223010895F5
:1000E000209108012F5F2093080140914301509116
:1000F00044016091450170914601480F591F611DEF
:10010000711D4093430150934401609345017093E6
:100110004601253080F16091430170914401809146
:1001200045019091460130E040E050E036D7CA01E9
:10013000B9011AD621E73DE34AE050E47AD5E1D58A
:1001400060934701709348018093490190934A015D
:100150008091470190914801A0914901B0914A01D5
:100160007FDF1092430110924401109245011092DA
:1001700046011092080108958F929F92AF92BF920C
:10018000CF92DF92EF92FF92CF93DF93C09106015F
:10019000D09107012196D0930701C0930601C0902A
:1001A0003301D0903401E0903501F0903601DAD57A
:1001B000A7019601DAD460933301709334018093E0
:1001C000350190933601C530D1050CF4F5C0C090CF
:1001D0003301D0903401E0903501F0903601BE013A
:1001E000DD0F880B990BC0D59B01AC01C701B6018F
:1001F00020D520E030EC40E054E4B6D460932F01E9
:1002000070933001809331019093320160912F01FE
:1002100070913001809131019091320123EA36E0F2
:1002200043E55BE32DD621E73DE342EF50E428D6DA
:1002300060932F01709330018093310190933201CC
:1002400060914701709148018091490190914A0164
:10025000C0902F01D0903001E0903101F090320138
:1002600080903B0190903C01A0903D01B0903E01F8
:100270007BD5A701960104D66B017C01C501B401B1
:1002800073D59B01AC01C701B6016FD43AD5609319
:100290003B0170933C0180933D0190933E0110928D
:1002A00007011092060180910401909105010196C9
:1002B0009093050180930401109233011092340150
:1002C000109235011092360110922F0110923001D8
:1002D0001092310110923201029709F06DC08091A5
:1002E0003B0190913C01A0913D01B0913E01BB23A7
:1002F0001CF40196A11DB11DB595A79597958795FD
:100300008093370190933801A0933901B0933A015B
:100310008091370190913801A0913901B0913A0153
:1003200084369105A105B105A4F48091370190911F
:100330003801A0913901B0913A010797A109B1099B
:1003400080933F0190934001A0934101B0934201FB
:1003500017C06091370170913801809139019091F7
:100360003A0102D52DEC3CEC4CE85FE389D5C9D4C9
:1003700060933F017093400180934101909342014B
:1003800080913F0190914001A0914101B0914201C3
:1003900084319540A105B1051CF05C98A895FDCF6E
:1003A00010923B0110923C0110923D0110923E01CF
:1003B0001092050110920401DF91CF91FF90EF9010
:1003C000DF90CF90BF90AF909F908F90089582E084
:1003D000809368001BBA81E080936C0008958AE0E6
:1003E00080938100109285001092840080E895E24D
:1003F000909389008093880082E080936F00089535
:100400008CE08093690082E08DBB0895E0E6F0E027
:1004100080818861808386E480830895CF92DF9213
:10042000EF92FF920F931F93CF93DF9300D000D0F2
:100430001F92CDB7DEB7E0912201F0E0EE5EFE4FF5
:100440009AE79083809122018F5F80932201E0914F
:100450002201F0E0EE5EFE4F9083809122018F5FDB
:1004600080932201E0912201F0E0EE5EFE4F83E5F1
:100470008083809122018F5F80932201E09122018D
:10048000F0E0EE5EFE4F8CE28083809122018F5F70
:100490008093220180913F0190914001A091410100
:1004A000B09142010897A105B1054CF080913F0140
:1004B00090914001A0914101B091420104C082E0BD
:1004C00090E0A0E0B0E089839A83AB83BC8389810C
:1004D0009A81AB81BC81892B8A2B8B2B81F10F2ECA
:1004E000FAE0CF2ED12CE12CF12CF02D69817A810C
:1004F0008B819C81A701960150D56D83E0912201EB
:10050000F0E08D81805DEE5EFE4F8083A895809146
:1005100022018F5F8093220169817A818B819C8186
:10052000A70196013AD529833A834B835C8389815D
:100530009A81AB81BC81892B8A2B8B2BB9F6E091F8
:100540002201F0E0EE5EFE4F80E580838091220183
:100550008F5F80932201E0912201F0E0EE5EFE4F7A
:100560008CE28083809122018F5F809322018091B1
:10057000470190914801A0914901B0914A018983B6
:100580009A83AB83BC8389819A81AB81BC81892B9F
:100590008A2B8B2B71F10F2EFAE0CF2ED12CE12C70
:1005A000F12CF02D69817A818B819C81009122014F
:1005B00010E0A7019601F1D4605DF801EE5EFE4FF8
:1005C0006083809122018F5F8093220169817A810B
:1005D0008B819C81A7019601E0D429833A834B83C8
:1005E0005C8389819A81AB81BC81892B8A2B8B2B7F
:1005F000C9F6E0912201F0E0EE5EFE4F86E58083D1
:10060000809122018F5F80932201E0912201F0E02E
:10061000EE5EFE4F91E69083809122018F5F809382
:100620002201E0912201F0E0EE5EFE4F9083809186
:100630002201809321010F900F900F900F900F9047
:10064000DF91CF911F910F91FF90EF90DF90CF90AE
:10065000089590E080E80FB6F8948093610090933D
:1006600061000FBE8EEC87B9409A83ED84B98FE7A5
:100670008AB9479884E480937C005398F894C0DE4C
:100680008BE880937A00ABDEC1DE8AE480BF80EC29
:100690008CBD9DDE5C987894E99A08951F920F9224
:1006A0000FB60F9211240F900FBE0F901F90189548
:1006B0001F920F920FB60F9211242F933F934F93D7
:1006C0005F936F937F938F939F93AF93BF93EF93BA
:1006D000FF938091100190911101FC01EE0FFF1F1B
:1006E000E55BFE4F2DE431E0318320830196883CA9
:1006F00091052CF4909311018093100104C0109285
:1007000011011092100180B7806180BF80B78F7790
:1007100080BF80910E0190910F0101968436910562
:100720002CF490930F0180930E0109C010920F01D9
:1007300010920E011092220171DE1092260187E5BF
:1007400092E00197F1F700C000001092850010922E
:100750008400B09AE1E8F0E080818A60808384E4DC
:1007600080937C00EAE7F0E08081806C8083E998E8
:10077000A895FF91EF91BF91AF919F918F917F913C
:100780006F915F914F913F912F910F900FBE0F90FE
:100790001F9018951F920F920FB60F9211242F934E
:1007A0003F934F935F936F937F938F939F93AF93F9
:1007B000BF93EF93FF9380910D0181116AC08091E7
:1007C000100190911101FC01EE0FFF1FE55BFE4F40
:1007D0002CEB31E0318320830196883C91052CF489
:1007E000909311018093100104C010921101109296
:1007F00010011092850010928400EAE7F0E08081F9
:100800008061808380818F77808388E59BE19093EE
:1008100089008093880081E080930D0160912B0115
:1008200070912C0180912D0190912E012091250134
:1008300030E040E050E08FD330930C0120930B0167
:10084000C9014EDC60912701709128018091290136
:1008500090912A012091240130E040E050E07BD3C8
:10086000CA01B90189DC1092270110922801109267
:10087000290110922A0110922B0110922C01109242
:100880002D0110922E011092250110922401479AF9
:1008900031C08091100190911101FC01EE0FFF1FFA
:1008A000E55BFE4F2BE232E0318320830196883CEA
:1008B00091052CF4909311018093100104C01092C3
:1008C000110110921001B09AE1E8F0E080818D7F73
:1008D0008083B09A109285001092840080E895E29F
:1008E000909389008093880083E08CBBE99A1092F2
:1008F0000D014798FF91EF91BF91AF919F918F911B
:100900007F916F915F914F913F912F910F900FBE0B
:100910000F901F9018951F920F920FB60F921124EF
:100920008F939F938091090190910A010196909372
:100930000A01809309019F918F910F900FBE0F9034
:100940001F9018951F920F920FB60F9211248F933C
:1009500080910101811114C0809126018F5F8093E5
:10096000260180B7806180BF80B7806880BF80919A
:1009700026018A3029F45C9810922601A895FBCFB5
:100980008F910F900FBE0F901F9018951F920F928E
:100990000FB60F9211242F933F934F935F936F9352
:1009A0007F938F939F93AF93BF93EF93FF93809128
:1009B00078009091790020917C00243421F0253436
:1009C00009F441C065C040912B0150912C01609108
:1009D0002D0170912E01092E000CAA0BBB0B840F68
:1009E000951FA61FB71F80932B0190932C01A093F6
:1009F0002D01B0932E01809125018F5F80932501F9
:100A00008091100190911101FC01EE0FFF1FE55B39
:100A1000FE4F26E130E0318320830196883C91052A
:100A20002CF4909311018093100104C010921101D5
:100A30001092100185E480937C00EAE7F0E0808169
:100A4000806C808325C040912701509128016091DE
:100A5000290170912A01092E000CAA0BBB0B840FEF
:100A6000951FA61FB71F8093270190932801A0937D
:100A70002901B0932A01809124018F5F8093240182
:100A800084E480937C00EAE7F0E08081806C8083DE
:100A9000FF91EF91BF91AF919F918F917F916F9156
:100AA0005F914F913F912F910F900FBE0F901F902C
:100AB00018951F920F920FB60F9211248F93EF93F8
:100AC000FF9380910101811110C080912201882340
:100AD00061F0E09122018FEF8E0F80932201F0E010
:100AE000EE5EFE4F80818EBD04C080912101809317
:100AF0002201FF91EF918F910F900FBE0F901F90E9
:100B000018951F920F920FB60F9211248F93809118
:100B1000010181110CC0309904C0109202015C984F
:100B200006C0309B04C081E0809302015C9A8F91E3
:100B30000F900FBE0F901F9018958BDD80910101D3
:100B4000882379F0809101018150809301012FEF7A
:100B500082E597E0215080409040E1F700C000001E
:100B6000EDCF10920101EACF5058BB27AA270ED033
:100B70004DC13ED130F043D120F031F49F3F11F40C
:100B80001EF433C10EF4E095E7FB29C1E92F4FD1E4
:100B900080F3BA17620773078407950718F071F49A
:100BA0009EF567C10EF4E0950B2EBA2FA02D0B0118
:100BB000B90190010C01CA01A0011124FF27591BA2
:100BC00099F0593F50F4503E68F11A16F040A22FA8
:100BD000232F342F4427585FF3CF46953795279519
:100BE000A795F0405395C9F77EF41F16BA0B620B18
:100BF000730B840BBAF09150A1F0FF0FBB1F661F5F
:100C0000771F881FC2F70EC0BA0F621F731F841FA1
:100C100048F4879577956795B795F7959E3F08F0C7
:100C2000B3CF9395880F08F09927EE0F9795879586
:100C300008950CD0EBC0E3D040F0DAD030F021F4CE
:100C40005F3F19F0CCC0511115C1CFC0F0D098F35F
:100C50009923C9F35523B1F3951B550BBB27AA273D
:100C600062177307840738F09F5F5F4F220F331FAF
:100C7000441FAA1FA9F333D00E2E3AF0E0E830D07B
:100C800091505040E695001CCAF729D0FE2F27D07E
:100C9000660F771F881FBB1F261737074807AB074C
:100CA000B0E809F0BB0B802DBF01FF2793585F4FC1
:100CB0002AF09E3F510568F092C0DCC05F3FECF324
:100CC000983EDCF3869577956795B795F7959F5F86
:100CD000C9F7880F911D9695879597F90895E1E0DA
:100CE000660F771F881FBB1F621773078407BA0739
:100CF00020F0621B730B840BBA0BEE1F88F7E09594
:100D0000089504D06894B111B5C0089598D088F0C2
:100D10009F5790F0B92F9927B751A0F0D1F0660FE7
:100D2000771F881F991F1AF0BA95C9F712C0B13002
:100D300081F09FD0B1E008959CC0672F782F88275D
:100D4000B85F39F0B93FCCF3869577956795B39541
:100D5000D9F73EF490958095709561957F4F8F4FB0
:100D60009F4F0895E89409C097FB3EF490958095B5
:100D7000709561957F4F8F4F9F4F9923A9F0F92F61
:100D800096E9BB279395F695879577956795B795DF
:100D9000F111F8CFFAF4BB0F11F460FF1BC06F5FC5
:100DA0007F4F8F4F9F4F16C0882311F096E911C0D7
:100DB000772321F09EE8872F762F05C0662371F0F8
:100DC00096E8862F70E060E02AF09A95660F771F0C
:100DD000881FDAF7880F9695879597F9089597F900
:100DE0009F6780E870E060E008959FEF80EC0895D1
:100DF00000240A94161617061806090608950024FA
:100E00000A9412161306140605060895092E039473
:100E1000000C11F4882352F0BB0F40F4BF2B11F4E7
:100E200060FF04C06F5F7F4F8F4F9F4F089557FD46
:100E30009058440F551F59F05F3F71F04795880F48
:100E400097FB991F61F09F3F79F0879508951216DF
:100E500013061406551FF2CF4695F1DF08C016168B
:100E600017061806991FF1CF86957105610508943C
:100E70000895E894BB2766277727CB0197F9089553
:100E80000AD0C4CFB5DF28F0BADF18F0952309F0F7
:100E9000A6CFABCFEFCFCBDFA8F39923D9F3552360
:100EA000C9F3950F50E0551FAA27EE27FF27BB2750
:100EB00000240894679520F4E20FF31FB41F0A1E64
:100EC000220F331F441FAA1F6695A9F7779530F4A8
:100ED000F30FB41F0A1E121E08F46395330F441F4C
:100EE000AA1F221F769599F7879520F4B40F0A1E42
:100EF000121E631F440FAA1F221F331F8695A9F7D6
:100F0000862F712D602D11249F5750408AF0E1F0FB
:100F100088234AF0EE0FFF1FBB1F661F771F881F35
:100F200091505040A9F79E3F510570F058CFA2CF85
:100F30005F3FECF3983EDCF3869577956795B79520
:100F4000F795E7959F5FC1F7FE2B880F911D96954A
:100F5000879597F90895A1E21A2EAA1BBB1BFD01E4
:100F60000DC0AA1FBB1FEE1FFF1FA217B307E40788
:100F7000F50720F0A21BB30BE40BF50B661F771FE0
:100F8000881F991F1A9469F76095709580959095C0
:100F90009B01AC01BD01CF010895052E97FB16F40E
:100FA00000940FD057FD05D0D6DF07FC02D046F4E1
:100FB00008C050954095309521953F4F4F4F5F4F5A
:100FC000089590958095709561957F4F8F4F9F4FB5
:060FD0000895F894FFCF24
:040FD600010601000F
:00000001FF
